:100000000C942A000C9401100C945B100C94891031
:100010000C9447000C9447000C9447000C94470044
:100020000C9447000C9447000C9437100C94470034
:100030000C9447000C9447000C9447000C94470024
:100040000C9447000C9447000C9447000C94470014
:100050000C94470011241FBECFE5D8E0DEBFCDBF12
:1000600010E0A0E6B0E0EAE0F2E202C005900D92F6
:10007000AE36B107D9F710E0AEE6B0E001C01D9290
:10008000A437B107E1F70E948C0F0C9403110C9474
:100090000000EF92FF920F931F937B018C0120E0F1
:1000A00030E040E05FE40E94490388238CF0C801FF
:1000B000B70120E030E040E05FE40E94C1010E940F
:1000C000A9039B01AC01205030404040504806C07D
:1000D000C801B7010E94A9039B01AC01B901CA0183
:1000E0001F910F91FF90EF900895A0E0B0E0EBE733
:1000F000F0E00C94CC10DC012B01FA019C919230C1
:1001000008F439C1EB018881823008F433C194309E
:1001100069F4843009F02FC111969C91119789815F
:10012000981709F428C1A4E6B0E025C1843009F489
:1001300021C18230A9F4923009F01DC19A01AD01AC
:1001400088E0EA010990AE01E90109929E0181501F
:10015000C1F7E201898111969C918923818308C1AD
:10016000923009F407C112962D903C901397EB0141
:100170008A819B811496AD90BD90CD90DC901797AD
:10018000EC80FD800E811F819101281B390BB90184
:1001900037FF04C066277727621B730B6032710537
:1001A0000CF061C0121613066CF537014801062EDB
:1001B00004C096948794779467940A94D2F721E0C8
:1001C00030E040E050E004C0220F331F441F551FB1
:1001D0006A95D2F721503040404050402E213F21B7
:1001E00040235123211531054105510521F021E01E
:1001F00030E040E050E079018A01E628F72808293C
:1002000019293CC0232BD1F1260E371E350146019A
:10021000062E04C096948794779467940A94D2F734
:1002200021E030E040E050E004C0220F331F441FC3
:10023000551F6A95D2F721503040404050402A2146
:100240003B214C215D21211531054105510521F04E
:1002500021E030E040E050E059016A01A628B728CB
:10026000C828D9280BC0821593052CF01C01AA249C
:10027000BB24650103C0EE24FF24870111969C91E5
:10028000D20111968C91981709F445C0992339F041
:10029000A80197012A193B094C095D0906C0A6016E
:1002A00095012E193F09400B510B57FD08C01182D3
:1002B0003382228224833583468357831DC081E0A5
:1002C00081833382228288279927DC01821B930B4A
:1002D000A40BB50B84839583A683B7830DC0220F2F
:1002E000331F441F551F24833583468357838281E0
:1002F000938101979383828324813581468157813D
:10030000DA01C9010197A109B1098F5F9F4FAF4F72
:10031000BF4328F30BC0918333822282EA0CFB1C7B
:100320000C1D1D1DE482F5820683178383E0808304
:10033000248135814681578157FF1AC0C901AA27F8
:1003400097FDA095BA2F81709070A070B0705695EF
:10035000479537952795822B932BA42BB52B848318
:100360009583A683B7838281938101969383828349
:10037000DF0101C0D201CD01CDB7DEB7E2E10C94BF
:10038000E810A0E2B0E0E7ECF1E00C94D81069834B
:100390007A838B839C832D833E834F835887E9E048
:1003A000EE2EF12CEC0EFD1ECE010196B7010E943F
:1003B000D2048E010F5E1F4FCE010596B8010E9438
:1003C000D2048A8991E089278A8BC701B801AE01DE
:1003D000475E5F4F0E9475000E94FD03A096E6E015
:1003E0000C94F410A0E2B0E0E8EFF1E00C94D81027
:1003F00069837A838B839C832D833E834F835887C5
:10040000F9E0EF2EF12CEC0EFD1ECE010196B701A6
:100410000E94D2048E010F5E1F4FCE010596B801D7
:100420000E94D204C701B801AE01475E5F4F0E942F
:1004300075000E94FD03A096E6E00C94F410A0E283
:10044000B0E0E5E2F2E00C94CC1069837A838B8310
:100450009C832D833E834F835887CE010196BE0136
:10046000675F7F4F0E94D204CE010596BE016F5E8A
:100470007F4F0E94D2049985923088F0898982301A
:10048000C8F0943019F4823051F404C0843029F457
:10049000923081F484E690E0C6C0923049F420E0C6
:1004A0009A858A89981321E02A87CE010996BBC0D4
:1004B000823049F420E09A858A89981321E02A8BBA
:1004C000CE014196B0C02D843E844F8458886D88FB
:1004D0007E888F88988CEE24FF248701AA24BB2471
:1004E000650140E050E060E070E0E0E0F0E0C10174
:1004F00081709070892BE9F0E60CF71C081D191D1E
:100500009A01AB012A0D3B1D4C1D5D1D80E090E062
:10051000A0E0B0E0E614F7040805190520F481E036
:1005200090E0A0E0B0E0BA01A901480F591F6A1F8E
:100530007B1FAA0CBB1CCC1CDD1C97FE08C081E0F5
:1005400090E0A0E0B0E0A82AB92ACA2ADB2A3196B6
:10055000E032F10549F0660C771C881C991C569412
:10056000479437942794C3CFFA85EA892B893C892D
:100570008B859C85280F391F2E5F3F4F17C0CA01FE
:1005800081709070892B61F016950795F794E79428
:1005900080E090E0A0E0B0E8E82AF92A0A2B1B2BC3
:1005A00076956795579547952F5F3F4F77FDE7CF36
:1005B0000CC0440F551F661F771F17FD4160EE0CDE
:1005C000FF1C001F111F21503040403090E05907A0
:1005D00090E0690790E4790760F32B8F3C8FDB0193
:1005E000CA018F779070A070B07080349105A1051A
:1005F000B10561F447FD0AC0E114F10401051105DC
:1006000029F0405C5F4F6F4F7F4F40781A8EFE1786
:1006100011F081E08A8F4D8F5E8F6F8F78A383E01A
:10062000898FCE0149960E94FD03A096E2E10C94C9
:10063000E810A8E1B0E0EFE1F3E00C94D810698392
:100640007A838B839C832D833E834F83588789E0F5
:10065000E82EF12CEC0EFD1ECE010196B7010E9492
:10066000D2048E010F5E1F4FCE010596B8010E9485
:10067000D2048985823040F08989823028F0C70110
:10068000B8010E944A0501C08FEF6896E6E00C941D
:10069000F410A8E1B0E0EFE4F3E00C94D810698323
:1006A0007A838B839C832D833E834F83588789E095
:1006B000E82EF12CEC0EFD1ECE010196B7010E9432
:1006C000D2048E010F5E1F4FCE010596B8010E9425
:1006D000D2048985823040F08989823028F0C701B0
:1006E000B8010E944A0501C08FEF6896E6E00C94BD
:1006F000F410A8E1B0E0EFE7F3E00C94D8106983C0
:100700007A838B839C832D833E834F83588789E034
:10071000E82EF12CEC0EFD1ECE010196B7010E94D1
:10072000D2048E010F5E1F4FCE010596B8010E94C4
:10073000D2048985823040F08989823028F0C7014F
:10074000B8010E944A0501C081E06896E6E00C9479
:10075000F410ACE0B0E0EFEAF3E00C94DC10698355
:100760007A838B839C83CE010196BE016B5F7F4FA2
:100770000E94D2048D81823061F1823050F1843048
:1007800021F48E81882351F12EC02F81388537FDC9
:1007900020C06E812F3131051CF06623F9F023C093
:1007A0008EE190E0821B930B29853A854B855C8511
:1007B00004C056954795379527958A95D2F76623B5
:1007C000B1F050954095309521953F4F4F4F5F4F79
:1007D0000EC020E030E040E050E009C02FEF3FEFD6
:1007E0004FEF5FE704C020E030E040E050E8B9019F
:1007F000CA012C96E2E00C94F810DF92EF92FF927F
:100800000F931F93FC01E480F58006811781D1804E
:100810008081823048F480E090E0A0E1B0E0E82AF6
:10082000F92A0A2B1B2BA5C0843009F49FC0823003
:1008300021F4EE24FF24870105C0E114F104010531
:10084000110519F4E0E0F0E096C0628173819FEF3A
:10085000623879070CF05BC022E83FEF261B370BAC
:100860002A3131052CF020E030E040E050E02AC091
:10087000B801A701022E04C0769567955795479554
:100880000A94D2F781E090E0A0E0B0E004C0880FC5
:10089000991FAA1FBB1F2A95D2F70197A109B10979
:1008A0008E219F21A023B1230097A105B10521F03E
:1008B00081E090E0A0E0B0E09A01AB01282B392B59
:1008C0004A2B5B2BDA01C9018F779070A070B07052
:1008D00080349105A105B10539F427FF09C0205CDA
:1008E0003F4F4F4F5F4F04C0215C3F4F4F4F5F4F13
:1008F000E0E0F0E02030A0E03A07A0E04A07A0E402
:100900005A0710F0E1E0F0E079018A0127C0603871
:10091000710564F5FB01E158FF4FD801C7018F77DE
:100920009070A070B07080349105A105B10539F4C4
:10093000E7FE0DC080E490E0A0E0B0E004C08FE3EB
:1009400090E0A0E0B0E0E80EF91E0A1F1B1F17FFA1
:1009500005C016950795F794E794319687E01695AC
:100960000795F794E7948A95D1F705C0EE24FF2404
:100970008701EFEFF0E06E2F679566276795902F60
:100980009F77D794DD24D7948E2F8695492F462BB9
:10099000582F5D29B701CA011F910F91FF90EF9069
:1009A000DF900895FC01DB01408151812281622F9B
:1009B0006F7770E0221F2227221F9381892F880FD3
:1009C000822B282F30E0991F9927991F11969C930D
:1009D000119721153105A9F54115510561057105DD
:1009E00011F482E037C082E89FEF13969C938E93B8
:1009F00012979A01AB0167E0220F331F441F551F66
:100A00006A95D1F783E08C930DC0220F331F441FEA
:100A1000551F12968D919C911397019713969C9355
:100A20008E931297203080E0380780E0480780E4FA
:100A3000580758F314962D933D934D935C93179755
:100A400008952F3F310579F4411551056105710570
:100A500019F484E08C93089564FF03C081E08C93C3
:100A600012C01C9210C02F57304013963C932E9307
:100A7000129783E08C9387E0440F551F661F771F02
:100A80008A95D1F7706414964D935D936D937C9322
:100A9000179708951F93DC01FB019C91923008F495
:100AA00047C08081823008F443C0943051F41196DD
:100AB0001C91843099F58181682F70E0611B710968
:100AC0003FC0843021F0923031F48230B9F181811D
:100AD000882389F12DC011961C9111978230F1F075
:100AE00081811817D9F412962D913C911397828128
:100AF00093818217930794F028173907BCF0149656
:100B00008D919D910D90BC91A02D248135814681C0
:100B10005781281739074A075B0718F4112341F05A
:100B20000AC082179307A407B50740F4112319F0F0
:100B300061E070E005C06FEF7FEF02C060E070E041
:100B4000CB011F910895DF93CF9300D000D000D048
:100B5000CDB7DEB78A836B834C838A81843008F0FB
:100B6000EEC08B81883008F0EAC08C81882321F0A8
:100B70008C81813009F0E3C081E089838A81282F4C
:100B800030E03E832D838D819E818130910509F473
:100B900047C02D813E81223031052CF48D819E810C
:100BA000009771F0CDC02D813E812230310509F4CE
:100BB00067C08D819E818330910509F491C0C0C0CA
:100BC0008C818823A9F4AAE3B0E0EAE3F0E0808115
:100BD000482F8B81282F30E081E090E0022E02C068
:100BE000880F991F0A94E2F7809584238C93A8C0FC
:100BF0008C81813009F0A4C0AAE3B0E0EAE3F0E020
:100C00008081482F8B81282F30E081E090E0022EF8
:100C100002C0880F991F0A94E2F7842B8C9390C02E
:100C20008C818823A9F4A7E3B0E0E7E3F0E08081BA
:100C3000482F8B81282F30E081E090E0022E02C007
:100C4000880F991F0A94E2F7809584238C9378C0CB
:100C50008C81813009F074C0A7E3B0E0E7E3F0E0F5
:100C60008081482F8B81282F30E081E090E0022E98
:100C700002C0880F991F0A94E2F7842B8C9360C0FE
:100C80008C818823A9F4A4E3B0E0E4E3F0E0808160
:100C9000482F8B81282F30E081E090E0022E02C0A7
:100CA000880F991F0A94E2F7809584238C9348C09B
:100CB0008C81813009F044C0A4E3B0E0E4E3F0E0CB
:100CC0008081482F8B81282F30E081E090E0022E38
:100CD00002C0880F991F0A94E2F7842B8C9330C0CE
:100CE0008C818823A9F4A1E3B0E0E1E3F0E0808106
:100CF000482F8B81282F30E081E090E0022E02C047
:100D0000880F991F0A94E2F7809584238C9318C06A
:100D10008C818130A9F4A1E3B0E0E1E3F0E08081CF
:100D2000482F8B81282F30E081E090E0022E02C016
:100D3000880F991F0A94E2F7842B8C9301C01982C3
:100D4000898126960FB6F894DEBF0FBECDBFCF9136
:100D5000DF910895DF93CF9300D000D00F92CDB7ED
:100D6000DEB78A836B8381E089838A81843010F0C7
:100D7000198232C08A81282F30E03D832C838C81F8
:100D80009D8181309105D1F02C813D81223031054A
:100D90002CF48C819D81009761F01EC02C813D81D7
:100DA0002230310581F08C819D818330910581F065
:100DB00013C0EAE3F0E08B8180830EC0E7E3F0E04C
:100DC0008B81808309C0E4E3F0E08B81808304C0E1
:100DD000E1E3F0E08B81808389810F900F900F9089
:100DE0000F900F90CF91DF910895DF93CF9300D0B4
:100DF00000D000D0CDB7DEB78A836B834C8381E00F
:100E000089838A81843048F48B81883030F48C81E6
:100E1000813029F08C81882311F01982E0C08A8109
:100E2000282F30E03E832D838D819E818130910576
:100E300009F447C02D813E81223031052CF48D818B
:100E40009E81009771F0CBC02D813E81223031050B
:100E500009F467C08D819E818330910509F491C0AA
:100E6000BEC08C818823A9F4ABE3B0E0EBE3F0E0F3
:100E70008081482F8B81282F30E081E090E0022E86
:100E800002C0880F991F0A94E2F7809584238C93FF
:100E9000A6C08C81813009F0A2C0ABE3B0E0EBE3E7
:100EA000F0E08081482F8B81282F30E081E090E0B6
:100EB000022E02C0880F991F0A94E2F7842B8C93AC
:100EC0008EC08C818823A9F4A8E3B0E0E8E3F0E0C9
:100ED0008081482F8B81282F30E081E090E0022E26
:100EE00002C0880F991F0A94E2F7809584238C939F
:100EF00076C08C81813009F072C0A8E3B0E0E8E3ED
:100F0000F0E08081482F8B81282F30E081E090E055
:100F1000022E02C0880F991F0A94E2F7842B8C934B
:100F20005EC08C818823A9F4A5E3B0E0E5E3F0E09E
:100F30008081482F8B81282F30E081E090E0022EC5
:100F400002C0880F991F0A94E2F7809584238C933E
:100F500046C08C81813009F042C0A5E3B0E0E5E3F2
:100F6000F0E08081482F8B81282F30E081E090E0F5
:100F7000022E02C0880F991F0A94E2F7842B8C93EB
:100F80002EC08C818823A9F4A2E3B0E0E2E3F0E074
:100F90008081482F8B81282F30E081E090E0022E65
:100FA00002C0880F991F0A94E2F7809584238C93DE
:100FB00016C08C81813099F4A2E3B0E0E2E3F0E066
:100FC0008081482F8B81282F30E081E090E0022E35
:100FD00002C0880F991F0A94E2F7842B8C938981B1
:100FE00026960FB6F894DEBF0FBECDBFCF91DF912E
:100FF0000895DF93CF9300D000D00F92CDB7DEB726
:101000008A836B8381E089838A81843010F019821E
:1010100032C08A81282F30E03D832C838C819D81D2
:1010200081309105D1F02C813D81223031052CF4A5
:101030008C819D81009761F01EC02C813D81223002
:10104000310581F08C819D818330910581F013C041
:10105000EBE3F0E08B8180830EC0E8E3F0E08B816E
:10106000808309C0E5E3F0E08B81808304C0E2E384
:10107000F0E08B81808389810F900F900F900F900B
:101080000F90CF91DF910895DF93CF9300D000D0E0
:1010900000D0CDB7DEB78B838B818430A8F58B81F0
:1010A000282F30E03E832D838D819E8181309105F4
:1010B000D1F02D813E81223031052CF48D819E812D
:1010C000009761F01EC02D813E812230310581F0F4
:1010D0008D819E818330910581F013C0E9E3F0E0BA
:1010E00080818A830EC0E6E3F0E080818A8309C0B4
:1010F000E3E3F0E080818A8304C0E0E3F0E08081F4
:101100008A839A819C8303C0198229812C838C81D4
:1011100026960FB6F894DEBF0FBECDBFCF91DF91FC
:101120000895DF93CF93CDB7DEB727970FB6F89426
:10113000DEBF0FBECDBF8B836C8381E08A838B8142
:10114000843008F070C08C81883008F06CC081E079
:101150008A838B81282F30E03F832E834E815F81ED
:101160004130510541F18E819F818230910534F4E7
:101170002E813F812115310561F052C04E815F8182
:101180004230510551F18E819F8183309105B9F133
:1011900047C0E9E3F0E08081282F30E08C81882F80
:1011A00090E0A90102C0559547958A95E2F7CA01DA
:1011B0008170898335C0E6E3F0E08081282F30E03C
:1011C0008C81882F90E0A90102C0559547958A959A
:1011D000E2F7CA018170898323C0E3E3F0E08081F4
:1011E000282F30E08C81882F90E0A90102C055950E
:1011F00047958A95E2F7CA018170898311C0E0E3BF
:10120000F0E08081282F30E08C81882F90E0A901C8
:1012100002C0559547958A95E2F7CA018170898386
:1012200059815D8303C01A828A818D838D812796BF
:101230000FB6F894DEBF0FBECDBFCF91DF910895FA
:10124000DF93CF93CDB7DEB7AFE5B0E0EFE5F0E0E9
:10125000808180688C93CF91DF910895DF93CF9345
:10126000CDB7DEB7AFE5B0E0EFE5F0E080818F7796
:101270008C93CF91DF910895DF93CF93CDB7DEB7F5
:101280002A970FB6F894DEBF0FBECDBF89836A835D
:101290008981282F30E03A87298789859A8581308E
:1012A000910509F452C029853A852230310509F4A7
:1012B00093C089859A85009709F0B3C08A81282F49
:1012C00030E038872F838F81988581309105C1F078
:1012D0002F8138852230310511F18F819885009753
:1012E00061F5A5E5B0E0E5E5F0E0808182608C93F2
:1012F000A5E5B0E0E5E5F0E080818E7F8C931DC030
:10130000A5E5B0E0E5E5F0E0808182608C93A5E59D
:10131000B0E0E5E5F0E0808181608C930EC0A5E54A
:10132000B0E0E5E5F0E080818D7F8C93A5E5B0E04D
:10133000E5E5F0E0808181608C93ABE5B0E0EBE522
:10134000F0E0808180648C936CC08A81282F30E02B
:101350003E832D838D819E8181309105C1F02D8149
:101360003E812230310511F18D819E81009761F51A
:10137000A5E5B0E0E5E5F0E0808188608C93A5E527
:10138000B0E0E5E5F0E080818B7F8C931DC0A5E5A2
:10139000B0E0E5E5F0E0808188608C93A5E5B0E001
:1013A000E5E5F0E0808184608C930EC0A5E5B0E0B7
:1013B000E5E5F0E08081877F8C93A5E5B0E0E5E589
:1013C000F0E0808184608C93ABE5B0E0EBE5F0E089
:1013D000808180688C9325C08A81282F30E03C83EF
:1013E0002B838B819C81009731F02B813C812130B4
:1013F000310549F00FC0A4E5B0E0E4E5F0E08081FC
:101400008F7B8C9307C0A4E5B0E0E4E5F0E0808139
:1014100080648C93ABE5B0E0EBE5F0E08081806226
:101420008C932A960FB6F894DEBF0FBECDBFCF9136
:10143000DF910895DF93CF93CDB7DEB72B970FB62B
:10144000F894DEBF0FBECDBF998788877B876A87F8
:101450001F821E8288859985009771F52E813F81B4
:101460008A859B85FC01E20FF31F80E380838E81D8
:101470009F8101969F838E8324C02E813F818A8520
:101480009B85FC01E20FF31F888599852AE030E0F7
:10149000B9010E94A510805D80838E819F81019695
:1014A0009F838E83888599852AE030E0B9010E9468
:1014B000A510CB0199878887888599851816190604
:1014C000E4F22E813F818A859B85FC01E20FF31FA8
:1014D00010821D821C828E819F8101979B838A834B
:1014E0002CC02C813D818A859B85FC01E20FF31F76
:1014F000808189832C813D818A859B85DC01A20FB7
:10150000B31F2A813B818A859B85FC01E20FF31F73
:1015100080818C932A813B818A859B85FC01E20F27
:10152000F31F898180838C819D8101969D838C83AB
:101530008A819B8101979B838A832C813D818A814B
:101540009B81281739076CF22B960FB6F894DEBFF3
:101550000FBECDBFCF91DF910895DF93CF93CDB76D
:10156000DEB72F970FB6F894DEBF0FBECDBF8F87C3
:1015700082E060E040E00E94F50682E061E040E049
:101580000E94F50680E06F850E94F90782E062E024
:1015900041E00E94F50680E090E0A0E8BFE38B8781
:1015A0009C87AD87BE876B857C858D859E8520E079
:1015B00030E04AEF54E40E941F02DC01CB018F832C
:1015C0009887A987BA876F81788589859A8520E071
:1015D00030E040E85FE30E94790388232CF481E047
:1015E00090E09E838D833FC06F81788589859A8541
:1015F00020E03FEF4FE757E40E94190318164CF51F
:101600006B857C858D859E8520E030E040E251E44D
:101610000E941F02DC01CB01BC01CD010E944900E8
:10162000DC01CB019E838D830FC088EC90E09C830E
:101630008B838B819C810197F1F79C838B838D81B8
:101640009E8101979E838D838D819E81009769F78E
:1016500014C06F81788589859A850E944900DC01D4
:10166000CB019E838D838D819E819A83898389811D
:101670009A810197F1F79A83898382E062E040E0E2
:101680000E94F5062F960FB6F894DEBF0FBECDBFB1
:10169000CF91DF910895DF93CF93CDB7DEB72E972B
:1016A0000FB6F894DEBF0FBECDBF81E00E94AD0A39
:1016B00080E090E0A0E0B0E48B879C87AD87BE8798
:1016C0006B857C858D859E8520E030E04AEF54E473
:1016D0000E941F02DC01CB018F839887A987BA87FC
:1016E0006F81788589859A8520E030E040E85FE366
:1016F0000E94790388232CF481E090E09E838D83FF
:101700003FC06F81788589859A8520E03FEF4FE75C
:1017100057E40E94190318164CF56B857C858D855E
:101720009E8520E030E040E251E40E941F02DC018F
:10173000CB01BC01CD010E944900DC01CB019E839D
:101740008D830FC088EC90E09C838B838B819C8180
:101750000197F1F79C838B838D819E8101979E83F6
:101760008D838D819E81009769F714C06F81788584
:1017700089859A850E944900DC01CB019E838D8377
:101780008D819E819A83898389819A810197F1F75E
:101790009A8389832E960FB6F894DEBF0FBECDBF15
:1017A000CF91DF910895DF93CF93CDB7DEB76C97DC
:1017B0000FB6F894DEBF0FBECDBF82E060E041E01F
:1017C0000E94A30582E061E041E00E94A30582E05F
:1017D00062E041E00E94A30580E06FEF0E94AA064C
:1017E00088E30E94AD0A80E090E0A0E8BFE3898F23
:1017F0009A8FAB8FBC8F698D7A8D8B8D9C8D20E0FD
:1018000030E04AEF54E40E941F02DC01CB018D8BD3
:101810009E8BAF8BB88F6D897E898F89988D20E0E4
:1018200030E040E85FE30E94790388232CF481E0F4
:1018300090E09C8B8B8B3FC06D897E898F89988DC2
:1018400020E03FEF4FE757E40E94190318164CF5CC
:10185000698D7A8D8B8D9C8D20E030E040E251E4E3
:101860000E941F02DC01CB01BC01CD010E94490096
:10187000DC01CB019C8B8B8B0FC088EC90E09A8BAA
:10188000898B89899A890197F1F79A8B898B8B8942
:101890009C8901979C8B8B8B8B899C89009769F71E
:1018A00014C06D897E898F89988D0E944900DC0162
:1018B000CB019C8B8B8B8B899C89988B8F878F8599
:1018C00098890197F1F7988B8F878EE00E94AD0A77
:1018D00080E090E0A0E8BFE38B879C87AD87BE8760
:1018E0006B857C858D859E8520E030E04AEF54E451
:1018F0000E941F02DC01CB018F839887A987BA87DA
:101900006F81788589859A8520E030E040E85FE343
:101910000E94790388232CF481E090E09E838D83DC
:101920003FC06F81788589859A8520E03FEF4FE73A
:1019300057E40E94190318164CF56B857C858D853C
:101940009E8520E030E040E251E40E941F02DC016D
:10195000CB01BC01CD010E944900DC01CB019E837B
:101960008D830FC088EC90E09C838B838B819C815E
:101970000197F1F79C838B838D819E8101979E83D4
:101980008D838D819E81009769F714C06F81788562
:1019900089859A850E944900DC01CB019E838D8355
:1019A0008D819E819A83898389819A810197F1F73C
:1019B0009A8389830E944B0B86E00E94AD0A6C9645
:1019C0000FB6F894DEBF0FBECDBFCF91DF91089563
:1019D000DF93CF93CDB7DEB72F970FB6F894DEBF66
:1019E0000FBECDBF8F8782E060E041E00E94F50628
:1019F00082E061E040E00E94F50680E06F850E9491
:101A0000F90782E062E041E00E94F50680E090E0A4
:101A1000A0E8BFE38B879C87AD87BE876B857C85FD
:101A20008D859E8520E030E04AEF54E40E941F023D
:101A3000DC01CB018F839887A987BA876F8178856E
:101A400089859A8520E030E040E85FE30E947903D1
:101A500088232CF481E090E09E838D833FC06F81CA
:101A6000788589859A8520E03FEF4FE757E40E940B
:101A7000190318164CF56B857C858D859E8520E0B5
:101A800030E040E251E40E941F02DC01CB01BC01C6
:101A9000CD010E944900DC01CB019E838D830FC0E4
:101AA00088EC90E09C838B838B819C810197F1F77C
:101AB0009C838B838D819E8101979E838D838D81F5
:101AC0009E81009769F714C06F81788589859A8512
:101AD0000E944900DC01CB019E838D838D819E8114
:101AE0009A83898389819A810197F1F79A838983FF
:101AF00082E062E040E00E94F5062F960FB6F8946F
:101B0000DEBF0FBECDBFCF91DF910895DF93CF939E
:101B100000D00F92CDB7DEB79B838A8319820EC0A7
:101B20008981282F30E08A819B81FC01E20FF31F1D
:101B300080810E94E80C89818F5F89838981282FA9
:101B400030E08A819B81FC01E20FF31F80818823B2
:101B500039F70F900F900F90CF91DF910895DF9399
:101B6000CF9300D0CDB7DEB789836A838A81882F6F
:101B700090E0029600249695879507949695879510
:101B80000794982F802D982F8981890F0E94AD0A84
:101B90000F900F90CF91DF910895DF93CF9300D0F6
:101BA0000F92CDB7DEB789838981282F30E03B8340
:101BB0002A838A819B81009731F02A813B812130E1
:101BC000310529F007C088E10E94AD0A03C08CE10D
:101BD0000E94AD0A0F900F900F90CF91DF91089562
:101BE000DF93CF93CDB7DEB72A970FB6F894DEBF59
:101BF0000FBECDBF9A87898789859A859E012F5F01
:101C00003F4FB9010E941A0ACE0101960E94860D2B
:101C10002A960FB6F894DEBF0FBECDBFCF91DF91ED
:101C20000895DF93CF9300D000D0CDB7DEB789837E
:101C30006A83E3E5F0E099818A81892B8083898139
:101C4000282F30E03C832B838B819C81009731F0DF
:101C50002B813C812830310581F01EC0A9E5B0E020
:101C6000E9E5F0E0808181608C93A9E5B0E0E9E5E9
:101C7000F0E080818D7F8C9324C0A9E5B0E0E9E598
:101C8000F0E080818E7F8C93A9E5B0E0E9E5F0E09B
:101C9000808182608C9315C0A9E5B0E0E9E5F0E0B1
:101CA00080818E7F8C93A9E5B0E0E9E5F0E080814A
:101CB0008D7F8C93A3E5B0E0E3E5F0E08081806266
:101CC0008C930F900F900F900F90CF91DF9108950C
:101CD000DF93CF930F92CDB7DEB78983E2E5F0E0D3
:101CE000898180830F90CF91DF910895DF93CF9307
:101CF0000F92CDB7DEB78983ECE5F0E08981808370
:101D00000F90CF91DF910895DF93CF93CDB7DEB7DA
:101D1000E2E5F0E08081CF91DF910895DF93CF93EA
:101D200000D00F92CDB7DEB789838981282F30E0AC
:101D30003B832A838A819B81009731F02A813B81F2
:101D40002130310549F00FC0AEE4B0E0EEE4F0E040
:101D5000808180648C9307C0AEE4B0E0EEE4F0E0F4
:101D600080818F7B8C930F900F900F90CF91DF919C
:101D70000895DF93CF93CDB7DEB727970FB6F894CA
:101D8000DEBF0FBECDBF89836A834B838981282F35
:101D900030E03F832E838E819F81009731F02E812A
:101DA0003F812130310559F163C0EEE4F0E08A81D2
:101DB000808381E00E948E0EAFE4B0E0EFE4F0E0BB
:101DC00080818C93A9E5B0E0E9E5F0E08081846052
:101DD0008C93A9E5B0E0E9E5F0E08081877F8C9302
:101DE000A9E5B0E0E9E5F0E080818F7E8C93A9E57C
:101DF000B0E0E9E5F0E0808180628C9339C0A9E52C
:101E0000B0E0E9E5F0E080818B7F8C93A9E5B0E05C
:101E1000E9E5F0E08081877F8C93A9E5B0E0E9E512
:101E2000F0E080818F7E8C93A9E5B0E0E9E5F0E0F9
:101E300080818F7D8C93EEE4F0E08A8188618083DD
:101E40008B81282F30E03D832C838C819D810097EE
:101E500031F02C813D812130310531F009C0EFE4B2
:101E6000F0E082E8808304C0EFE4F0E082E2808367
:101E700027960FB6F894DEBF0FBECDBFCF91DF918E
:101E80000895DF93CF9300D000D00F92CDB7DEB787
:101E900089837B836A838981282F30E03D832C836B
:101EA0008C819D81009731F02C813D81213031055D
:101EB00041F00DC0EAE4F0E08A819B819183808348
:101EC00006C0E8E4F0E08A819B81918380830F90D3
:101ED0000F900F900F900F90CF91DF910895DF93A7
:101EE000CF9300D0CDB7DEB79A838983E6E4F0E0E4
:101EF00089819A81918380830F900F90CF91DF9198
:101F00000895DF93CF93CDB7DEB7E6E4F0E08081AC
:101F10009181CF91DF910895DF93CF93CDB7DEB755
:101F20000E9420090E94D30B83E062E040E00E94FF
:101F3000A30583E063E040E00E94A30581E062E046
:101F400040E00E94A30583E062E041E00E94F506C4
:101F500083E063E041E00E94F50681E062E041E059
:101F60000E94F50680E060E00E943C0981E060E0AC
:101F70000E943C0982E060E00E943C0980916E0072
:101F800090916F002FE0803A9207A1F48091720047
:101F90008F5F80937200809172008C3339F41092BD
:101FA0007200809171008F5F8093710010926F00BA
:101FB00010926E0090916C0080917200981731F42D
:101FC00090916D00809171009817C1F20E944B0BA7
:101FD00080917100882F90E00E94F00D80E690E0E3
:101FE0000E94860D80917200882F90E00E94F00D73
:101FF0008091720080936C008091710080936D00DD
:10200000BDCF1F920F920FB60F9211242F933F93C3
:102010004F935F936F937F938F939F93AF93BF93F0
:10202000EF93FF93DF93CF93CDB7DEB7809170002E
:102030000E94680E8AEF0E94760E88E062E00E949D
:10204000110E81E080937300CF91DF91FF91EF91AA
:10205000BF91AF919F918F917F916F915F914F91C0
:102060003F912F910F900FBE0F901F9018951F92C8
:102070000F920FB60F9211248F939F93DF93CF93FC
:10208000CDB7DEB780917300882F90E08130910545
:1020900049F480916E0090916F00019690936F00CB
:1020A00080936E00CF91DF919F918F910F900FBE23
:1020B0000F901F9018951F920F920FB60F92112438
:1020C0002F933F934F935F936F937F938F939F9340
:1020D000AF93BF93EF93FF93DF93CF93CDB7DEB76B
:1020E000109273000E94840E80937000CF91DF9154
:1020F000FF91EF91BF91AF919F918F917F916F91E0
:102100005F914F913F912F910F900FBE0F901F90B5
:1021100018951F920F920FB60F921124DF93CF9351
:10212000CDB7DEB7109273001092700010926F005E
:1021300010926E001092710010927200CF91DF9198
:102140000F900FBE0F901F90189597FB092E072632
:102150000AD077FD04D00CD006D000201AF4709578
:1021600061957F4F0895F6F7909581959F4F08955B
:10217000AA1BBB1B51E107C0AA1FBB1FA617B707AD
:1021800010F0A61BB70B881F991F5A95A9F78095C9
:102190009095BC01CD0108952F923F924F925F928E
:1021A0006F927F928F929F92AF92BF92CF92DF9267
:1021B000EF92FF920F931F93CF93DF93CDB7DEB7CC
:1021C000CA1BDB0B0FB6F894DEBF0FBECDBF099460
:1021D0002A88398848885F846E847D848C849B84B7
:1021E000AA84B984C884DF80EE80FD800C811B81C5
:1021F000AA81B981CE0FD11D0FB6F894DEBF0FBEF4
:0A220000CDBFED010895F894FFCF63
:0E220A00202D200000000000000000000A0A45
:00000001FF
